:100000000C945D000C94C7030C94A0030C94850021
:100010000C9485000C9485000C94EE030C948500E0
:100020000C9485000C9485000C9485000C9485003C
:100030000C9485000C9485000C9485000C9485002C
:100040000C9456030C9485000C9424030C94FE022B
:100050000C9485000C9485000C9485000C9485000C
:100060000C9485000C94850000000008000201003B
:100070000003040700000000000000000000000072
:10008000250028002B0000000000240027002A0083
:10009000040404040404040402020202020203032E
:1000A0000303030301020408102040800102040836
:1000B0001020010204081020120411241FBECFEFEB
:1000C000D8E0DEBFCDBF11E0A0E0B1E0EEE6FDE09C
:1000D00002C005900D92AA33B107D9F722E0AAE336
:1000E000B1E001C01D92A433B207E1F710E0CDE505
:1000F000D0E004C02197FE010E948806CC35D107CC
:10010000C9F70E9451040C94B5060C94000090E0CD
:10011000FC01EC55FF4F2491FC01E057FF4F849107
:10012000882399F090E0880F991FFC01EA57FF4F50
:10013000A591B491FC01E458FF4F859194918FB73C
:10014000F894EC91E22BEC938FBF0895CF92DF925D
:10015000EF92FF920F931F93CF93DF936C017A017D
:100160008B01C0E0D0E0CE15DF0589F0D8016D919C
:100170008D01D601ED91FC910190F081E02DC60139
:100180000995892B11F47E0102C02196ECCFC7019D
:10019000DF91CF911F910F91FF90EF90DF90CF9063
:1001A00008950FB6F894A8958091600088618093B7
:1001B0006000109260000FBE08950895FC01918DBB
:1001C000828D981761F0828DDF01A80FB11D5D96B9
:1001D0008C91928D9F5F9F73928F90E008958FEF27
:1001E0009FEF0895FC01918D828D981731F0828DDB
:1001F000E80FF11D858D90E008958FEF9FEF089532
:10020000FC01918D228D892F90E0805C9F4F821B95
:1002100091098F73992708958FE491E00E9400015E
:1002200021E0892B09F420E0822F0895FC01848DC0
:10023000DF01A80FB11DA35ABF4F2C91848D90E010
:1002400001968F739927848FA689B7892C93A089EB
:10025000B1898C9180648C93938D848D981306C0A2
:100260000288F389E02D80818F7D80830895EF924D
:10027000FF920F931F93CF93DF93EC0181E0888F60
:100280009B8D8C8D981305C0E889F989808185FD47
:1002900024C0F62E0B8D10E00F5F1F4F0F73112738
:1002A000E02E8C8DE8120CC00FB607FCFACFE8895F
:1002B000F989808185FFF5CFCE010E941601F1CF2B
:1002C0008B8DFE01E80FF11DE35AFF4FF0820B8F7B
:1002D000EA89FB898081806207C0EE89FF8960839B
:1002E000E889F98980818064808381E090E0DF91F2
:1002F000CF911F910F91FF90EF900895CF93DF93CF
:10030000EC01888D8823C9F0EA89FB89808185FD0D
:1003100005C0A889B9898C9186FD0FC00FB607FC6E
:10032000F5CF808185FFF2CFA889B9898C9185FFAF
:10033000EDCFCE010E941601E7CFDF91CF91089556
:1003400080E090E0892B29F00E940C0181110C942F
:100350000000089590E0FC01E859FF4F3491FC0142
:10036000EC55FF4F2491FC01E057FF4FE491EE2341
:1003700009F43BC0332339F1333091F038F4313094
:10038000A9F0323001F584B58F7D12C0373091F07D
:100390003830A1F03430B9F4809180008F7D03C0F3
:1003A000809180008F77809380000DC084B58F7717
:1003B00084BD09C08091B0008F7703C08091B000E8
:1003C0008F7D8093B000F0E0EE0FFF1FE458FF4FE9
:1003D000A591B4918FB7F894EC91611103C0209569
:1003E0002E2301C02E2B2C938FBF08953FB7F89476
:1003F00080913F0190914001A0914101B091420153
:1004000026B5A89B05C02F3F19F00196A11DB11D6F
:100410003FBFBA2FA92F982F8827820F911DA11DAA
:10042000B11DBC01CD0142E0660F771F881F991FE7
:100430004A95D1F708952FB7F89460913B017091D8
:100440003C0180913D0190913E012FBF08958F9214
:100450009F92AF92BF92CF92DF92EF92FF926B0189
:100460007C010E941B024B015C01C60ED71EE81ED8
:10047000F91E0E941B02681579058A059B0528F064
:10048000C616D706E806F906A0F7FF90EF90DF90B2
:10049000CF90BF90AF909F908F9008958F929F9232
:1004A000AF92BF92CF92DF92EF92FF9261E085E030
:1004B0000E94AA0161E08DE00E94AA010E94F6015B
:1004C0004B015C0180E4C82E8FE1D82EE12CF12C89
:1004D0000E94F601DC01CB0188199909AA09BB0920
:1004E000883E9340A105B10558F021E0C21AD10819
:1004F000E108F10888EE880E83E0981EA11CB11C6B
:10050000C114D104E104F10419F760E085E00E9410
:10051000AA0160E08DE00E94AA01109243011092AE
:1005200044011092450110924601FF90EF90DF9038
:10053000CF90BF90AF909F908F9008950E948E06AD
:100540006115710579F0FB0101900020E9F7319701
:10055000AF01461B570BDC01ED91FC910280F3814A
:10056000E02D099480E090E008954F925F926F92A1
:100570007F92EF92FF920F931F93CF93DF93CDB7AC
:10058000DEB7A1970FB6F894DEBF0FBECDBF7C01DA
:10059000FA01CB0119A2223008F42AE08E010F5D86
:1005A0001F4F422E512C612C712CBF01A3019201CF
:1005B0000E949306F901CA01015011096A3014F42E
:1005C000605D01C0695CD8016C93232B242B252B23
:1005D00061F7B801C7010E94A002A1960FB6F89476
:1005E000DEBF0FBECDBFDF91CF911F910F91FF9066
:1005F000EF907F906F905F904F9008951F920F92B1
:100600000FB60F9211242F933F934F935F936F93E5
:100610007F938F939F93AF93BF93EF93FF938FE459
:1006200091E00E941601FF91EF91BF91AF919F91D0
:100630008F917F916F915F914F913F912F910F908B
:100640000FBE0F901F9018951F920F920FB60F922A
:1006500011242F938F939F93EF93FF93E0915F016A
:10066000F09160018081E0916501F091660182FD69
:1006700012C09081809168018F5F8F732091690112
:10068000821751F0E0916801F0E0E15BFE4F958F39
:100690008093680101C08081FF91EF919F918F91BC
:1006A0002F910F900FBE0F901F9018951F920F92D1
:1006B0000FB60F9211242F933F938F939F93AF9375
:1006C000BF9380913B0190913C01A0913D01B0917D
:1006D0003E0130913A0123E0230F2D3720F401969B
:1006E000A11DB11D05C026E8230F0296A11DB11D55
:1006F00020933A0180933B0190933C01A0933D01EC
:10070000B0933E0180913F0190914001A091410141
:10071000B09142010196A11DB11D80933F019093BC
:100720004001A0934101B0934201BF91AF919F91CD
:100730008F913F912F910F900FBE0F901F901895A2
:100740001F920F920FB60F9211242F933F934F9346
:100750005F936F937F938F939F93AF93BF93EF9329
:10076000FF93E0910201F09103010995FF91EF9150
:10077000BF91AF919F918F917F916F915F914F91B9
:100780003F912F910F900FBE0F901F9018951F92C1
:100790000F920FB60F9211242F933F934F935F93B5
:1007A0006F937F938F939F93AF93BF93EF93FF9339
:1007B000E0910001F09101010995FF91EF91BF9146
:1007C000AF919F918F917F916F915F914F913F91E9
:1007D0002F910F900FBE0F901F9018951F920F92A0
:1007E0000FB60F9211242F933F934F935F936F9304
:1007F0007F938F939F93AF93BF93EF93FF930E9449
:10080000D100FF91EF91BF91AF919F918F917F9117
:100810006F915F914F913F912F910F900FBE0F906D
:100820001F901895EFE4F1E01382128288EE93E0B6
:10083000A0E0B0E084839583A683B78388E091E04D
:100840009183808385EC90E09587848784EC90E0A9
:100850009787868780EC90E0918B808B81EC90E08D
:10086000938B828B82EC90E0958B848B86EC90E06E
:10087000978B868B118E128E138E148EECEEF1E018
:1008800016821782108611861286138614861586A4
:1008900016861786108A118A128A138A148A158A74
:1008A0000895789484B5826084BD84B5816084BDE8
:1008B00085B5826085BD85B5816085BD80916E00FE
:1008C000816080936E00109281008091810082602F
:1008D000809381008091810081608093810080916C
:1008E00080008160809380008091B100846080935B
:1008F000B1008091B00081608093B00080917A0057
:10090000846080937A0080917A00826080937A007C
:1009100080917A00816080937A0080917A0080686B
:1009200080937A001092C10010923002109231022E
:1009300010923202109233021092EE011092EF01E7
:100940001092F0011092F10168EB7BE080E090E002
:100950000E9427028FE491E090932F0280932E0251
:10096000E0915F01F091600182E08083E0915B01A2
:10097000F0915C011082E0915D01F0915E0180E1F7
:10098000808310926701E0916301F091640186E039
:100990008083E0916101F0916201808180618083B8
:1009A000E0916101F0916201808188608083E09133
:1009B0006101F0916201808180688083E091610132
:1009C000F091620180818F7D80830E941B02609381
:1009D000EE017093EF018093F0019093F10164E1D7
:1009E00071E080912E0290912F020E94A0026AE095
:1009F00070E080E090E00E94270281E08093020294
:100A000061E082E00E94AA0185E00E9487008DE0FB
:100A10000E9487000E944E0284EFC82EDD24D394EA
:100A2000E12CF12C91E6B92EC1EDD0E00DED10E0F6
:100A30000E941B02672B682B692B41F40E941B024A
:100A4000623071058105910508F40BC10E941B02FB
:100A500060934B0170934C0180934D0190934E0134
:100A600040904701509048016090490170904A01C0
:100A7000641575058605970540F4609347017093EA
:100A800048018093490190934A014090470150905A
:100A900048016090490170904A019B01AC01241902
:100AA00035094609570929013A013AEF431651041D
:100AB0006104710408F4D5C0609347017093480144
:100AC0008093490190934A01C092FA01D092FB01B0
:100AD000E092FC01F092FD011092FE011092FF01E4
:100AE00010920002109201028091F2019091F301A4
:100AF000A091F401B091F5018093F6019093F70174
:100B0000A093F801B093F9010E941B026093F201D7
:100B10007093F3018093F4019093F5010E941B02FE
:100B20006093EE017093EF018093F0019093F101D7
:100B30000E941B022B013C0166E271E080912E02B3
:100B400090912F020E94A0022AE041E050E060E074
:100B500070E080912E0290912F020E94B5026DE20A
:100B600071E080912E0290912F020E94A0022AE053
:100B7000B301A20180912E0290912F020E94B50232
:100B80006FE271E080912E0290912F020E94A002EC
:100B90008091F2019091F301A091F401B091F501DF
:100BA000B301A201481B590B6A0B7B0B2AE0809111
:100BB0002E0290912F020E94B5026FE271E08091A7
:100BC0002E0290912F020E94A0024091F2015091BA
:100BD000F3016091F4017091F5018091F60190911B
:100BE000F701A091F801B091F901481B590B6A0B6C
:100BF0007B0B2AE080912E0290912F020E94B50279
:100C000061E371E080912E0290912F020E94A00278
:100C10000E941B02AB01BC012AE080912E02909140
:100C20002F020E94B50260902E0270902F0263E3A3
:100C300071E0C3010E94A00263E271E0C3010E945F
:100C4000A00265E070E080E090E00E9427020E9430
:100C50001B026093F2017093F3018093F40190936F
:100C6000F5018091430190914401A0914501B0911B
:100C7000460180319E40A105B10510F00E944E0250
:100C8000F89414BE80916000886180936000B092F7
:100C90006000A89590917A0010927A00809164008B
:100CA0008F6E8093640083B7817F846083BF83B736
:100CB000816083BFD0930101C093000180916900DE
:100CC0008C7F80936900E89A78948895E8981093CF
:100CD00001010093000190937A008091640080717B
:100CE000809364008091430190914401A09145015B
:100CF000B09146010196A11DB11D809343019093CF
:100D00004401A0934501B09346010E94A00190CEFA
:100D1000EE0FFF1F0590F491E02D099481E090E023
:100D2000F8940C94B506A1E21A2EAA1BBB1BFD0178
:100D30000DC0AA1FBB1FEE1FFF1FA217B307E407BA
:100D4000F50720F0A21BB30BE40BF50B661F771F12
:100D5000881F991F1A9469F76095709580959095F2
:0E0D60009B01AC01BD01CF010895F894FFCFB7
:100D6E00DD00DD00000000003701A6000001DE00FE
:100D7E00F2007E01564D4450565F317C315F564D28
:100D8E004450560D0A00564D4450455F003A323AD3
:0A0D9E00007C005F564D44504500F4
:00000001FF
